:020000040800F2
:1000000010AB0220C10100082D380008C92A0008E1
:10001000E137000849060008B17700080000000039
:10002000000000000000000000000000156500084E
:10003000B91B0008000000005B02000865710008A1
:10004000DB010008DB010008DB010008DB01000820
:10005000DB010008DB010008DB010008DB01000810
:10006000DB010008DB010008DB010008DB01000800
:10007000DB010008DB010008DB010008DB010008F0
:10008000DB01000851130008DB010008DB01000858
:10009000DB010008DB010008DB010008DB010008D0
:1000A000DB010008DB010008DB010008DB010008C0
:1000B000DB010008DB010008DB010008DB010008B0
:1000C000DB010008DB010008DB010008DB010008A0
:1000D000DB010008757400089D740008DB0100084E
:1000E000DB010008DB010008DB010008DB01000880
:1000F000DB010008DB010008DB010008DB01000870
:10010000DB010008DB010008DB010008DB0100085F
:10011000DB010008DB010008DB010008DB0100084F
:10012000DB010008DB010008DB010008DB0100083F
:10013000DB0100089D1D0008DB010008DB01000851
:10014000DB010008DB010008DB010008DB0100081F
:10015000DB01000879130008A1130008C57400082A
:10016000DB010008DB010008DB010008DB010008FF
:10017000DB010008DB010008DB010008DB010008EF
:10018000DB010008DB010008DB010008DB010008DF
:10019000DB010008DB010008DB010008DB010008CF
:1001A000DB010008DB010008DB010008DFF80CD0F0
:1001B00000F016F900480047B5E7000810AB022030
:1001C0000648804706480047FEE7FEE7FEE7FEE7F1
:1001D000FEE7FEE7FEE7FEE7FEE7FEE78D720008BA
:1001E000AD010008EFF3098141B1F1EE101A40F8BA
:1001F000041D20ED200A29490A6810607047B0EC00
:10020000200A02C8E1EE101A25490A6810607047FA
:10021000EFF3108072B6704780F310887047214862
:100220004FF6FF710170002080F309881E480168B5
:1002300081F308881D48012101701D484FF080514D
:10024000016062B6FEE71A484FF0805101607047C6
:1002500017484FF080510160704772B6EFF3098084
:1002600028B1203880E8F00F0C490968086000B513
:10027000104880475DF804EB0F4810490A78027077
:10028000064807490A680260106890E8F00F2030BD
:1002900080F309884EF0F40E62B6704734020020F5
:1002A0003C02002022ED00E0540200202C0200203D
:1002B00004ED00E0254C0008270200202802002061
:1002C00040EA01039B0703D009E008C9121F08C0D8
:1002D000042AFAD203E011F8013B00F8013B521E58
:1002E000F9D27047D2B201E000F8012B491EFBD2CF
:1002F00070470022F6E710B513460A460446194631
:10030000FFF7F0FF204610BD30B505462A460B46E4
:1003100012F8010B13F8014B08B1A042F8D01CB140
:10032000002802D06D1CF1E7284630BDCAB2401E3D
:1003300010F8011F8A4202D00029F9D1002070472D
:10034000421C10F8011B0029FBD1801A704710B520
:10035000002200E0521C835C8C5CA34201D1002B84
:10036000F8D1D8B2E1B2401A10BD30B50446002031
:10037000034600E05B1C934203D2E05CCD5C401B73
:10038000F8D030BD034611F8012B00F8012B002AEC
:10039000F9D11846704730B505460020034600E005
:1003A0005B1C934205D2EC5CC85C201A01D1002C86
:1003B000F6D130BD30B50B46014600202022012485
:1003C00009E021FA02F59D4205D303FA02F5491B23
:1003D00004FA02F52844151EA2F10102F1DC30BD39
:1003E000064C074D06E0E06840F0010394E8070082
:1003F00098471034AC42F6D3FFF7DCFE601E0308CA
:10040000801E030870B58C1810F8015B15F0070307
:1004100001D110F8013B2A1106D110F8012B03E09D
:1004200010F8016B01F8016B5B1EF9D12B0705D4A5
:100430000023521E0DD401F8013BFAE710F8013BEE
:10044000CB1A921C03E013F8015B01F8015B521E0A
:10045000F9D5A142D8D3002070BDF0B500BF00BFD0
:1004600000BF00BF01224FF47A76B2FBF6F6F1B27C
:1004700001EB4106C6EBC116A2EBC6066427B6FB2C
:10048000F7F6F3B24FF47A7611FB06F603EBC307E7
:1004900007EB031706EB8706961B0A27B6FBF7F454
:1004A000E82611FB06F603EBC30707EB031706EB81
:1004B000870604EB840706EB4706951B01F130061F
:1004C000067003F13006467004F13006867005F1BF
:1004D0003006C6700671F0BD2DE9F04180460D462C
:1004E00016461F4600242A46314628A002F0D5F8B9
:1004F000804608F1010000282AD000202549087014
:1005000025A007F075F900BF20E056F824001FA1D0
:10051000FFF71DFFC0B957F8240022A1FFF717FF0E
:1005200030B901201B49087020A007F061F90BE0E9
:1005300057F8240020A1FFF70AFF28B90020154929
:10054000087015A007F054F9601CC4B2AC42DCDBA3
:100550001B48007828B90F48007810B919A0BDE8E9
:10056000F0811748007828B90A480078012801D19D
:100570001CA0F4E712480078012805D1054800784E
:10058000012801D11FA0EAE726A0E8E7424545502F
:1005900000000000C1010020626565703D303B0A2B
:1005A00000000000424545504F4E000062656570F6
:1005B0003D313B0A00000000424545504F46460091
:1005C000C00100202F53544D3332463430374C4550
:1005D000445F4F4E5F424545505F4F46462E73681D
:1005E000746D6C002F53544D3332463430374C45C4
:1005F000445F4F4E5F424545505F4F4E2E736874C7
:100600006D6C00002F53544D3332463430374C4517
:10061000445F4F46465F424545505F4F4E2E7368DC
:10062000746D6C002F53544D3332463430374C4583
:10063000445F4F46465F424545505F4F46462E73E6
:1006400068746D6C0000000000BFFEE700BF12E0A0
:10065000012002F01DFA0446D4F8F00758B12046F4
:1006600005F05AFF04F11C00D4F8F017FFF741FE23
:100670000020C4F8F007EBE72DE9F04105460E46EF
:1006800000272C462078AA2804D06078F52801D0CD
:10069000BDE8F081A178E07801EB002087B26088A6
:1006A000B04200D0F4E760480068401C5E49086032
:1006B00003F000F9E08867287ED006DC052820D00A
:1006C00007283CD0652878D109E0692806D0C928D8
:1006D00074D0A0F2D2700028F5D19DE09EE053487E
:1006E0000068012804DD51480068401E4F49086039
:1006F00000204E4908604E480068401C4C49086084
:100700008CE001204B49087000204B4908701020F4
:100710004A4908804A484B49086004F108004A49A0
:100720000860062006F004FA00F09EF808B900F010
:100730009BF846480068401C444908606EE004F19C
:1007400008004149086008460068007A0006096808
:10075000C97900EB01403C490968897900EB012027
:1007600039490968497908443949086036480068B8
:10077000007D000634490968C97C00EB014032491C
:100780000968897C00EB01202F490968497C0844ED
:10079000304908602C480068C07D2F4908712A48FC
:1007A0000068007EC87028480068407E08702648AF
:1007B0000068807E487002E01FE02EE023E02248BF
:1007C0000068C07E88702248006840B902201A493B
:1007D00008701849087010201849891C08800820E2
:1007E00006F0A6F900F040F808B900F03DF81B4803
:1007F0000068401C1949086010E019480068401C56
:10080000174908600AE017480068401C154908604D
:1008100000200949087001E000E000BF00BF03F0BC
:1008200043F800BF34E7000014010020C800002096
:10083000A8000020DF000020CC000020181C02408F
:100840008E8A0100E000002018010020C000002076
:10085000240100201C010020D9000020BC00002041
:10086000B0000020B80000202DE9F0410026FF274D
:10087000B04602F027F810B90120BDE8F081384CED
:100880004FF47A712046FFF734FDAA202070F5203E
:10089000607000260DE002F015F806EB4601314AC3
:1008A00002EB41018988884201D1374603E0701C80
:1008B00086B2072EEFD300BFFF2F01D10220DCE765
:1008C00007EB4701274A02EB410108688047401CBB
:1008D00085B205F10800A070010AE17010202071B6
:1008E00021480078401C2049087008460078FF28FD
:1008F00001DD012008701C48007860711B48C08829
:10090000E0802A461949083104F10800FFF7D8FCB5
:10091000B4F80680002605E004F10800805D8044FC
:10092000701C86B2681EB042F6DC04F1080101F8C2
:10093000008009300A49A1F8EE030846B0F8EE132A
:1009400005F0E0FF20B10AA006F052FF032094E773
:100950000B480068401C0A49086000208DE7000031
:1009600068B20120E40000202801002058B60120D0
:10097000CAFDBEDDB7A2CBCDCAA7B0DC0D0A000010
:100980001001002070B504465B480078012807D1AB
:100990005A480078012803D1204600F0F3F970BDD1
:1009A000112257A12046FFF7F6FC30B90120534928
:1009B000087058A006F01CFF9BE0112262A120469F
:1009C000FFF7E9FC30B965A006F012FF00204B49A3
:1009D00008708EE00E226DA12046FFF7DCFC30B9D6
:1009E00001206E4908706EA006F002FF81E00F2220
:1009F00072A12046FFF7CFFC30B90020674908708C
:100A000072A006F0F5FE74E0082277A12046FFF7F9
:100A1000C2FC30B939480078012802D101F05CFFEE
:100A200067E0092273A12046FFF7B5FC18B97448A6
:100A3000744908605DE0032273A12046FFF7ABFC18
:100A400038B900F051FC0546297870A006F0D0FEB8
:100A50004FE0082272A12046FFF79DFC30B901202B
:100A6000724908706EA006F0C3FE42E0082270A131
:100A70002046FFF790FC30B900206C4908706CA04C
:100A800006F0B6FE35E00B226CA12046FFF783FC92
:100A900030B900206C49087068A006F0A9FE28E073
:100AA0000B226AA12046FFF776FC30B90120664987
:100AB000087066A006F09CFE1BE0082266A1204696
:100AC000FFF769FC002814D166A006F091FE71A022
:100AD00006F08EFE7BA006F08BFE86A006F088FE58
:100AE00090A006F085FE9BA006F082FE0120024940
:100AF000087000BF53E700002C0100201500002003
:100B000044454255474D4553534147455F4F504536
:100B10004E0000000D0A2A2A2A2A2A2A2A2A646557
:100B2000627567206D657373616765206F70656EB0
:100B3000207375636365737321212A2A2A2A2A2A5E
:100B40002A2A2A0A0000000044454255474D4553D1
:100B5000534147455F434C4F534500000D0A2A2A35
:100B60002A2A2A2A2A2A2A2A2A6465627567206D77
:100B700065737361676520636C6F73656420212101
:100B80002A2A2A2A2A2A2A2A2A0A00006C77697025
:100B90007265626F6F746F70656E00007001002087
:100BA0000D0A6C776970436F7265457272526562A7
:100BB0006F6F74206F70656E0D0A00006C7769703E
:100BC0007265626F6F74636C6F7365000D0A6C778A
:100BD0006970436F72654572725265626F6F7420FF
:100BE000636C6F73650D0A006966636F6E66696793
:100BF000000000007379737265626F6F740000000B
:100C00000400FA050CED00E069643A000D0A206466
:100C10006576696365206964203A2564200D0A00C1
:100C2000454E646562756734383500003601002032
:100C30004E4F646562756734383500004E4F646509
:100C4000627567444943490037010020454E646599
:100C50006275674449434900636F6E6669676970EE
:100C6000000000000D0A2A2A2A2A2A2A2A2A2A2AC9
:100C70002A2A2ABCAFD6D0C6F7CDF8C2E7C5E4D63B
:100C8000C32A2A2A2A2A2A2A2A2A2A2A2A2A2A2A2B
:100C90000D0A000052454D4F544549502D2D2D2D24
:100CA0002D2D2D2D2D2D2D2D2D2D7269703A78780D
:100CB000782E7878782E7878782E787878200D0AC3
:100CC0000000000052454D4F5445504F52542D2DB9
:100CD0002D2D2D2D2D2D2D2D2D2D2D2D2D2D2D2D44
:100CE0002D2D2D2D72706F72743A787878200D0A40
:100CF0000000000052454D4F54454D6972726F72AD
:100D0000696E6749502D2D2D2D726D69703A787876
:100D1000782E7878782E7878782E787878200D0A62
:100D20000000000052454D4F54454D6972726F727C
:100D3000696E67504F52542D2D2D2D2D2D2D2D2D9B
:100D40002D2D2D726D706F72743A787878200D0A9F
:100D500000000000CDCBB3F6CDF8C2E7C5E4D6C3A2
:100D60002D2D2D2D2D2D2D2D2D2D2D2D2D2D2D2DB3
:100D70002D2D2D2D2D2D2D2D2D65786974200D0AED
:100D80000000000038B5044604222BA12046FFF7DE
:100D900002FB60B9201D11F0EBF9684602F036FA4B
:100DA000684605F015FF24A000F0E8FC42E00622AA
:100DB00023A12046FFF7EFFA48B9A01D11F0D8F99A
:100DC000214805F031FF1EA000F0D8FC32E00522DA
:100DD0001EA12046FFF7DFFA60B9601D11F0C8F9C7
:100DE000684602F013FA684605F0A8FE17A000F066
:100DF000C5FC1FE0072217A12046FFF7CCFA48B92F
:100E0000E01D11F0B5F9104805F0C4FE11A000F086
:100E1000B5FC0FE0042211A12046FFF7BCFA30B95F
:100E200000201049087010A006F0E2FC02E01CA0AF
:100E300006F0DEFC38BD00007269703A0000000068
:100E400072706F72743A00002E010020726D69702A
:100E50003A000000726D706F72743A0065786974C0
:100E6000000000002C0100200D0A2A2A2A2A2A2A22
:100E70002A2A2A2A2A2A2ACDCBB3F6BCAFD6D0C634
:100E8000F7CDF8C2E7C5E4D6C3C4A3CABD2A2A2A4F
:100E90002A2A2A2A2A2A2A2A2A2A2A2A0D0A000043
:100EA0000D0A2A2A2A2A2A2A2A2A2A2A2A2A2AC346
:100EB000FCC1EEB8F1CABDB4EDCEF32A2A2A2A2A23
:100EC0002A2A2A2A2A2A2A2A2A2A0D0A0000000067
:100ED000F8B506460024002000903146ADA0FFF78B
:100EE00036FA20B13146ADA0FFF731FA18B9AC4956
:100EF000A8A000F0D3FB3146AAA0FFF728FA20B142
:100F00003146A6A0FFF723FA20BB6946A5A000F052
:100F1000C5FB01F0B9FD0546012085F8B30F009827
:100F2000401C08B1009840B9C0202872A8216972FD
:100F30000A21A9726821E9720AE0002406E01DF87E
:100F4000041005F108000155601CC4B2042CF6DB46
:100F500000200090314695A0FFF7F9F920B1314605
:100F60008EA0FFF7F4F998B9694690A000F096FBBF
:100F700001F08AFD05460098401C08B1009818B998
:100F800042F21070A88101E00098A8810020009032
:100F9000314688A0FFF7DBF920B131467FA0FFF78B
:100FA000D6F920BB694683A000F078FB01F030FD44
:100FB0000546002085F8B30F0098401C08B1009842
:100FC00040B9C0202872A82169720A21A97268213B
:100FD000E9720AE0002406E01DF8041005F108009B
:100FE0000155601CC4B2042CF6DB00200090314691
:100FF00072A0FFF7ACF920B1314668A0FFF7A7F95E
:1010000098B969466DA000F049FB01F001FD054665
:101010000098401C08B1009818B942F21170A881DC
:1010200001E00098A88100200090314665A0FFF7FC
:101030008EF920B1314659A0FFF789F938BB6946CE
:1010400060A000F02BFB0AF0E9FF07460098401C67
:1010500008B1009840B9002403E000203855601C16
:10106000C4B2042CF9DB0FE0002404E01DF80400F6
:101070003855601CC4B2042CF8DB554B01221146D4
:101080005448006802F0B2FD0020009000BF3146D5
:1010900051A0FFF75CF920B1314640A0FFF757F9A6
:1010A00000BB69464CA000F0F9FA0AF0BFFF074602
:1010B0000098401C08B1009840B9002403E00020CB
:1010C0003855601CC4B2042CF9DB08E0002404E0AD
:1010D0001DF804003855601CC4B2042CF8DB002055
:1010E000009000BF314640A0FFF731F928B13146EA
:1010F0002AA0FFF72CF900284AD169463AA000F04F
:10110000CDFA3C493CA000F0C9FA009801283DD135
:10111000002010F099FF34A000F030FB69463AA09F
:1011200000F0BCFA009810F003FF694639A000F007
:10113000B5FA009810F0F6FE694638A000F0AEFA55
:10114000009810F06FFF694637A000F0A7FA0098EA
:1011500010F062FF694637A000F0A0FA009810F086
:10116000DBFE694636A000F099FA009810F0CEFE3A
:10117000694636A000F092FA009810F041FF6946E7
:1011800035A000F08BFA009810F058FF0020009076
:10119000F8BD00004445425547000000616C6C00FA
:1011A000150000207269703A0000000072706F72C2
:1011B000743A0000726D69703A000000726D706FD1
:1011C00072743A006C6F63616C69703A00000000E1
:1011D00014000020100000206C6F63616C6E657459
:1011E0006D61736B3A0000007379736572726F7290
:1011F00000000000E00100207379736572726F7265
:10120000636F756E740000006865616473656E6479
:10121000000000006865616461636B007374617451
:101220006573656E64000000737461746561636B5F
:101230000000000066696E69736873656E64000083
:1012400066696E69736861636B0000007374617234
:1012500074636F756E74000073746F70636F756E76
:101260007400000010B50723054A0021054803F06B
:101270008FF90823044A0021044803F089F910BDBE
:1012800044BD0120F136000844C101204D0600088C
:1012900038B500200090002401F01AFB00F1080589
:1012A0000F48007828B120220E49281DFFF708F8C2
:1012B00004E020220B492846FFF702F82146684641
:1012C0000AF086FE228805F124000099FEF7F8FF57
:1012D0002188002205F1240006F0D6F9208838BDC7
:1012E000700000205000002010B508220020154B8F
:1012F000187000211EE001EB4100134B03EB80004E
:101300004068006901EB41030F4C34F8233018406A
:1013100018B101200D4B58540BE000200B4B5854D2
:10132000C1F1070301209840064B1B781843054B79
:101330001870491C9142DEDB0620024B18701846DB
:1013400010BD0000CA010020F0170308C2010020F0
:1013500010B5FEF75DFF044606480078401C0549BD
:1013600008702046FEF758FF012001F05FFF02F0F1
:101370001FFD10BD2502002010B5FEF749FF0446F1
:1013800006480078401C054908702046FEF744FFD7
:10139000022001F04BFF02F00BFD10BD25020020E2
:1013A00010B5FEF735FF044606480078401C054995
:1013B00008702046FEF730FF002001F037FF02F0F2
:1013C000F7FC10BD250200200246094B9A4201D2CB
:1013D000084801E00648103801F000531BB1064BE5
:1013E0000B40C36002E0044B0B4083607047000079
:1013F00010640240006002407D0F7D0F21B1026841
:1014000042F00102026003E0026822F00102026081
:1014100070470000016821F00101016000210160B6
:1014200041608160C1600161212141614A49884276
:1014300004D13D21484A103A91608CE04649183168
:10144000884205D14FF47461434A103A916082E0BA
:1014500041493031884205D14FF474113E4A103A67
:10146000916078E03C494831884205D14FF0746181
:10147000394A103A91606EE037496031884204D1B0
:101480003649354A103AD16065E0334978318842AF
:1014900004D13349304A103AD1605CE02E49903192
:1014A000884204D12F492C4A103AD16053E02A498E
:1014B000A831884205D14FF03D51274A103AD160FA
:1014C00049E02949884204D13D21274A083A116060
:1014D00041E025491831884205D14FF47461224A10
:1014E000083A116037E020493031884205D14FF485
:1014F00074111D4A083A11602DE01B494831884299
:1015000005D14FF07461184A083A116023E016497A
:101510006031884204D11149134A121F11601AE048
:1015200011497831884204D10D490F4A121F1160C8
:1015300011E00D499031884204D10A490A4A121F2C
:10154000116008E00849A831884204D14FF03D51AC
:10155000054A121F11607047106002403D000020D4
:10156000400F002000003D20106402400146486802
:1015700080B2704770B50246002000240025124E4C
:10158000B24201D2114B01E00F4B103B104E0E4006
:1015900036B11E2606EAD124166806EA040502E0E2
:1015A000566906F0800501F000560EB15C6800E057
:1015B0001C68084E344004EA010616B10DB1012042
:1015C00000E0002070BD0000106402400060024096
:1015D0003C0F3C0F7D0F7D0F10B501F080034BB128
:1015E00022B1436943F08003436103E0436923F080
:1015F0008003436180290BD02AB1036801F01E04E7
:101600002343036004E0036801F01E04A343036066
:1016100010BD000010B500220268134B1A40CC68C0
:101620000B6823434C6923438C692343CC692343D0
:101630000C6A23434C6A23438C6A23434C6B234339
:101640008C6B23431A430260426922F00702D1E9FE
:101650000B3423431A4342610B6943604B68836038
:101660008B68C36010BD00003F801CF04160704774
:10167000014600200A784B7802EB032290B27047B3
:1016800001460020CA7810068A7800EB02404A78AA
:1016900000EB02200A7810447047000070B5054640
:1016A0000E46002405222DA12E48FEF774FE08B335
:1016B00020222C4908392C4804F0CCFE052227A111
:1016C0002848FEF768FEB0B9264808384068274920
:1016D0000860244808380068254908600846006802
:1016E000244908602148006842011E4908391E4803
:1016F00004F0B0FE00E070BD2846FEF721FE02288F
:1017000004D32846FEF71CFE182800D9F3E701246D
:101710001CE01449083901EB441101F10800294685
:10172000FEF715FE80B90F49083901EB44114A68EC
:101730000C49083901EB441109680F4B03EB810098
:10174000314604F087FE05E0601C84B2074800685B
:101750008442DED300BF00BFCDE700005441424CBD
:1017600045000000DC3C022000000C08CC010020F9
:10177000D0010020D401002000000E0870B58AB00E
:10178000064600200990314671A0FEF7E0FD28B919
:10179000012271496EA000F03FF9D7E031466FA0F9
:1017A000FEF7D5FD98B901F06FF90446E07A01061D
:1017B000A07A41EA0041607A41EA0020217A084398
:1017C0000990012209A965A000F026F9BEE0314682
:1017D00064A0FEF7BCFD50B901F056F90446A0899B
:1017E0000990012209A95FA000F016F9AEE0314688
:1017F0005EA0FEF7ACFD98B901F00AF90446E07A64
:101800000106A07A41EA0041607A41EA0020217A8B
:1018100008430990012209A954A000F0FDF895E0C1
:10182000314654A0FEF793FD50B901F0F1F804469B
:10183000A0890990012209A94EA000F0EDF885E0E9
:1018400031464EA0FEF783FD98B90AF0E7FB054646
:10185000E8780006A97840EA0140697840EA01206A
:10186000297808430990012209A944A000F0D4F87E
:101870006CE0314644A0FEF76AFD98B90AF0D6FB49
:101880000546E8780006A97840EA0140697840EA10
:101890000120297808430990012209A93AA000F003
:1018A000BBF853E031463CA0FEF751FD00284DD176
:1018B0003C4800780990012209A937A000F0ACF853
:1018C0000122394939A000F0A7F80AF09BFB0890E3
:1018D0000AF092FB07900AF0C7FB06900AF0BEFBE5
:1018E00005900AF083FB04900AF07AFB03900AF05B
:1018F000A9FB02900AF0BEFB0190012208A92FA0CB
:1019000000F08AF8012207A92FA000F085F8012233
:1019100006A92FA000F080F8012205A92FA000F051
:101920007BF8012204A930A000F076F8012203A977
:1019300030A000F071F8012202A931A000F06CF88B
:10194000012201A931A000F067F800BF0AB070BD04
:101950004445425547000000150000207269703A66
:101960000000000072706F72743A0000726D69704E
:101970003A000000726D706F72743A006C6F6361B0
:101980006C69703A000000006C6F63616C6E657486
:101990006D61736B3A0000007379736572726F72D8
:1019A00000000000DC010020E00100207379736575
:1019B00072726F72636F756E7400000068656164A7
:1019C00073656E64000000006865616461636B00AC
:1019D000737461746573656E640000007374617480
:1019E0006561636B0000000066696E69736873650A
:1019F0006E64000066696E69736861636B00000065
:101A00007374617274636F756E74000073746F70B9
:101A1000636F756E740000002DE9F04106460F46B5
:101A2000144600253046FEF78BFC022804D33046CE
:101A3000FEF786FC182801D9BDE8F08104B9FBE760
:101A4000012523E0534901EB451101F1080031461E
:101A5000FEF77DFCC0B94F4800EB45104068A0423E
:101A60000DD04D48006820444A4901EB45114968B2
:101A7000401A49490860474800EB45104460394620
:101A8000284605F0C1FFD7E7681C85B2142DD9DBC5
:101A90004049424A126801EB421101F10800314607
:101AA000FEF770FC3B483D49096800EB411044607B
:101AB0003A480068012807D100203649374A1268A1
:101AC00001EB4211086014E034480068401E3149BF
:101AD00001EB4010016831480068401E2D4A02EBBE
:101AE00040104068084411462C4A126801EB42112C
:101AF00008602A480068401C284908602648006899
:101B000020442549086026A122480830FEF73AFC07
:101B1000224800681F4948601F48006808601F4845
:101B200000684201204804F0A9FC1B4909688800AC
:101B30000CF06AFE1D4908601748026808460168F3
:101B40001B4804F087FC15490968491E114B03EB3B
:101B5000411149688A0011490968491E03EB411186
:101B60000968124B1B6803EB81003946FEF7A8FB9E
:101B7000094802680D4801680D4804F07FFC0B48D5
:101B800000680AF06DF9044800680A49086000BF5F
:101B900052E70000D43C0220D0010020CC010020FC
:101BA0005441424C4500000000000C08D8010020C0
:101BB00000000E08D4010020704700000149486170
:101BC000704700000090024029B1064AD2690243E2
:101BD000044BDA6104E0034AD2698243014BDA61C3
:101BE000704700000090024030B10749896941F018
:101BF0000201054A916105E00349896921F002016A
:101C0000014A9161704700000090024070B50C4697
:101C100013460021124D286000BF18E000EB41126E
:101C20004FF00045156044F2F4555560C1EBC11505
:101C300005EB450504EB850595605D1E8D4204D9D5
:101C400000EB41152035D56000E0D060491C994279
:101C5000E4D3044DE860044D044E356070BD0000CF
:101C60000002002000900240543F022004020020A5
:101C700030B10749896941F40051054A916105E095
:101C80000349896921F40051014A916170470000BC
:101C90000090024030B50C46134600210F4D2860DD
:101CA00000BF15E000EB41124FF480151560C1EB49
:101CB000C11505EB450504EB850595605D1E8D425C
:101CC00004D900EB41152035D56000E0D060491CF7
:101CD0009942E7D3024D286130BD0000FC0100208D
:101CE0000090024002680A430260704710B508483D
:101CF000006840F0007006490860642000F00AF8AF
:101D00000348006820F000700149086010BD000021
:101D10001038024001B581B0002000900198009079
:101D200002E00098401E009000980028F9D10CBDF8
:101D30000348806940F480100149886170470000C1
:101D4000009002400148006880687047FC01002054
:101D500001460868C0F30D40704700B502460023F5
:101D6000106800F0004058B9106800F4004038B91D
:101D7000106800F4807018B11046FFF7E9FF0346C1
:101D8000184600BD00200449096801F0010109B1AD
:101D9000012000E0002070470090024010B501F0E3
:101DA000F5FF01E00CF0CEFC07480068FFF7D5FF17
:101DB0000028F7D14020FFF701FF4FF48030FFF7F4
:101DC000FDFE01F0F5FF10BD000200202DE9FC41F1
:101DD00004460F464FF0000800BF0020019000BFEE
:101DE00000909548056925F01C059449D4F8BC007D
:101DF00000FB01F69248864205D39248864202D201
:101E000045F008051AE08F48864205D38E48864281
:101E100002D245F00C0511E08B48864203D38B4873
:101E2000864200D20AE08948864205D38848864225
:101E300002D245F0040501E045F010057E48056139
:101E40004FF400420021384600F018FB10B9002082
:101E5000BDE8FC817F48FFF75DFF206800284ED079
:101E600000BF0098401C00900121384600F0DAF9CC
:101E700000F0040018B9784900988842F1D37649F7
:101E80000098884201D10020E2E7002000904FF442
:101E900080520021384600F0F1FA08B90020D7E757
:101EA00000BF0098401C00900121384600F0BAF9AC
:101EB00000F0200018B9684900988842F1D36649BB
:101EC0000098884201D10020C2E7002000901F2125
:101ED000384600F0A7F9804608F0100018B14FF41A
:101EE0000060206201E00020206208F0040010B1D0
:101EF0000020606116E04FF48040606112E0206ACB
:101F0000C0F3CF006169C1F34F0140EA0102002133
:101F1000384600F0B3FA08B9002099E76FF07F4027
:101F2000FFF7F8FE444805684C480540D4E9010134
:101F30000843E16808432169084361690843A169CE
:101F40000843E1690843216A0843616A0843A16ABA
:101F50000843E16A0843216B0843616B084305436A
:101F600035480560D4E90E010843216C0843616CD3
:101F70000843A16C0843E16C0843216D0843616D7F
:101F800008432D494860A06D8860E06DC860084630
:101F900085694FF641700540B4F86010606E40EA04
:101FA0000140A16E0843E16E0843216F0843616F51
:101FB0000843054320488561D4E91E0108431E49B2
:101FC000C8612748856927480540D4E920010843AE
:101FD000D4F888100843D4F88C100843D4F8901033
:101FE0000843D4F894100843D4F898100843D4F860
:101FF0009C100843D4F8A010084305431848856195
:10200000D4E929010843D4F8AC100843D4F8B0103F
:102010000843D4F8B41040EA8100D4F8B81008435B
:1020200040F400000E4908600846006840F0800057
:10203000086001200CE700000080024040420F00D1
:10204000002D3101C00E16020087930300E1F50553
:1020500080D1F008FFFF0F00FFFF04000F8120FF79
:1020600000900240233FDEF810B50B794C7943EA2B
:102070000422094B03441A64CB781B068C7843EA8C
:1020800004434C7843EA04230C7843EA0402024BED
:1020900003445A6410BD00000080024010B5B0B087
:1020A0002248006840F0606020490860FFF71EFE8B
:1020B00000F03CF900BFFFF765FE0128FBD0684641
:1020C00000F04EF901200090002007904FF40070BE
:1020D0000A9000200B900E90119013901490159080
:1020E00020904FF000702190001123900020259047
:1020F000269004202890C005299040122A90800143
:102100002B9040122C9040002E90C0202F90002148
:102110006846FFF75BFEC4B2012C03D101210448DD
:10212000FFF752FD204630B010BD000030380240AD
:102130004000010030B10749096841F00401054A37
:10214000116005E00349096821F00401014A1160AA
:10215000704700000080024030B10749096841F033
:102160000801054A116005E00349096821F00801EA
:10217000014A1160704700000080024010B50A4813
:10218000016800200DF0C2F80848016800200DF039
:10219000BDF80748016800200DF0B8F8054801684F
:1021A00000200DF0B3F810BDEC010020F00100207C
:1021B000F4010020F801002010B5A02100200DF04E
:1021C000B7F814490860A02100200DF0B1F81249B9
:1021D000086041F6C45100200DF0AAF80F490860CC
:1021E00041F6C45100200DF0A3F80D4908600948DC
:1021F000006840B10848006828B10848006810B17C
:102200000846006818B9FFF7B9FF012010BD00208B
:10221000FCE70000EC010020F0010020F4010020A8
:10222000F801002018B502460B460021002000905E
:102230001548016901F01C014FF4784000EAC22002
:1022400001434FF4F86000EA8310014321F00201DA
:1022500041F001010C48016100BF0098401C009052
:102260000948016901F0010018B1084C0098A0422A
:10227000F3D3064C0098A04201D1002018BD0248BB
:10228000406980B2FAE7000000800240FFFF0400CE
:102290001EB500210022009201920292214A12688A
:1022A000126802F0004282B1002200921E4A526976
:1022B00002F0800222B180221B4B5A6100229A60F8
:1022C0009DE81C0080E81C001EBD164A12681268BA
:1022D00002F40042B2B9134A1268126802F4807222
:1022E00082B1104A1268126802F4007252B10D4AAB
:1022F00012681268C2F30D42111F0A4A12689268EE
:10230000019200E000210091064A12680292054AFB
:102310001268D268034B1A609DE81C0080E81C001C
:1023200000BFD1E70002002000900240034800688F
:1023300040F0010001490860704700000090024031
:1023400000B50120FFF708FFFFF7F2FC0120FFF7BF
:10235000F1FE0120FFF78CFC0120FFF745FC00BDDA
:1023600001210160002141608160C16001614FF481
:102370008041416100218161C1614FF400610162CE
:10238000002141628162C162016341638163C16373
:10239000402101642021416400218164C164016500
:1023A00041658165C16501668021416600218166C4
:1023B000C166016741678167C1674FF08061C0F8FE
:1023C00080104910C0F884100021C0F888104FF424
:1023D0000011C0F88C100021C0F89010C0F89410C3
:1023E000C0F89810C0F89C10C0F8A0104FF0007111
:1023F000C0F8A4104912C0F8A8108901C0F8AC10A8
:102400004912C0F8B0100021C0F8B410C0F8B810DC
:1024100070470000014617480068006800F000405F
:1024200008B100207047C1F30C00124A12685060D6
:1024300010480068006840F040500E4A1268106072
:102440000C480068006840F000400A4A12681060BA
:102450000948406900F0040020B10420064A506198
:102460000020506003480068C068024A10600120E4
:10247000D8E70000FC0100200090024038B5034678
:102480000C460021002000901448016901F01C0155
:102490004FF4784000EAC32001434FF4F86000EAAB
:1024A0008410014341F0020141F001010B484261F7
:1024B000016100BF0098401C00900848016901F0CC
:1024C000010018B1064D0098A842F3D3044D0098BE
:1024D000A84201D1002038BD0120FCE70080024065
:1024E000FFFF04000148007870470000360100201B
:1024F00030B10749096841F48061054A116005E07F
:102500000349096821F48061014A116070470000A5
:10251000003C024070B504460A460026092502B96F
:1025200009E0012A01D1160205E0022A01D11602B2
:1025300001E04FF4407600F09FF80546092D28D1C0
:102540001548006820F44070134908600846006888
:10255000304308600846006820F0F800086008462C
:10256000006844F0020108430B490860084600680F
:1025700040F48030086000F07FF8054606480068A7
:1025800020F00200044908600846006820F0F800C6
:102590000860284670BD0000103C02400920134925
:1025A000096801F48031B1F5803F01D101201CE0C0
:1025B0000E49096801F0100109B1062015E00B4928
:1025C000096801F4807109B102200EE00749096829
:1025D00001F0E00109B1072007E00449096801F0B2
:1025E000020109B1082000E0092070470C3C0240BC
:1025F0000348006840F0004001490860704700004F
:10260000103C024030B502460C46092500F034F873
:102610000546092D19D10E48006820F440700C4978
:1026200008600846006840F40070086008460068CA
:1026300040F001000860146000F01EF805460448F0
:10264000006820F0010002490860284630BD000003
:10265000103C02400548006800F0004028B10448E2
:1026600002490C390860034808607047103C02407A
:1026700023016745AB89EFCD08B509200090FFF72E
:102680008DFF009002E0FFF789FF00909DF80000A9
:102690000128F8D09DF8000008BD2DE9F04107465B
:1026A0000D461646002409E055F824103846FDF77B
:1026B0004EFE10B92046BDE8F081641CB442F3DB45
:1026C0004FF0FF30F7E730B5CC1000F1200353F89E
:1026D00024304C07E50E0F24AC40A343CD1000F18D
:1026E000200444F82530CC1000F1200353F82430A6
:1026F0004C07E40E02FA04F42343CD1000F1200449
:1027000044F8253030BDF0B50A46002100230024EE
:1027100000BF3DE0012505FA01F3156805EA030451
:102720009C4234D105684F000326BE40B543056086
:1027300015794E00B5400668354305601579012DC1
:1027400002D01579022D16D185684F000326BE40B0
:10275000B543856055794E00B54086683543856040
:10276000456801268E40B5434560456896798E40A0
:10277000B6B235434560C5684F000326BE40B54339
:10278000C560D5794E00B540C6683543C560491C63
:102790001029BFD3F0BDF0B5002300244D07ED0E86
:1027A00002FA05F3CE1000F1200555F826504E0729
:1027B000F70E0F26BE40B543CF1000F1200646F8B5
:1027C0002750CE1000F1200555F8265045EA0304A5
:1027D000CE1000F1200545F82640F0BD418370473A
:1027E0002DE9F0470C46DDE90867002100258C46FD
:1027F00000BF60E04FF0010808FA01F504EA050C9B
:10280000AC4557D1D0F800804FEA410A4FF0030998
:1028100009FA0AF928EA0908C0F80080D0F800800F
:102820004FEA410902FA09F948EA0908C0F80080AC
:10283000012A01D0022A27D1D0F808804FEA410AA4
:102840004FF0030909FA0AF928EA0908C0F80880D4
:10285000D0F808804FEA410906FA09F948EA090860
:10286000C0F80880D0F804904FF0010808FA01F889
:1028700029EA0809C0F80490D0F8048003FA01F9A5
:1028800048EA0908C0F80480D0F80C804FEA410AF1
:102890004FF0030909FA0AF928EA0908C0F80C8080
:1028A000D0F80C804FEA410907FA09F948EA09080B
:1028B000C0F80C80491C10299CD3BDE8F087018327
:1028C000704700000148C0887047000058B60120DA
:1028D0000048704758B601200EB51BA004F088FFD1
:1028E0001B4840791A490979194AD278CDE9002163
:1028F0000290174883784278017816A004F078FF98
:102900001348407B00901248037BC27A817A1EA054
:1029100004F06EFF0E48407C00900D48037CC27BA3
:10292000817B24A004F064FF0948407D00900848A2
:10293000037DC27C817C2AA004F05AFF02F02CFFA8
:1029400002F04CFF0EBD00000D0A0A0A0000000054
:1029500048C501204D4143B5D8D6B7CEAA3A2E2E50
:102960002E2E2E2E2E2E2E2E2E2E2E2E2E2E2E2E87
:102970002E2E25642E25642E25642E25642E256496
:102980002E25640D0A0000004950B5D8D6B72E2E6A
:102990002E2E2E2E2E2E2E2E2E2E2E2E2E2E2E2E57
:1029A0002E2E2E2E2E2E25642E25642E25642E25C9
:1029B000640D0A00D7D3CDF8D1DAC2EB2E2E2E2E1D
:1029C0002E2E2E2E2E2E2E2E2E2E2E2E2E2E2E2E27
:1029D0002E2E25642E25642E25642E25640D0A00D6
:1029E000C4ACC8CFCDF8B9D82E2E2E2E2E2E2E2E1A
:1029F0002E2E2E2E2E2E2E2E2E2E2E2E2E2E2564CA
:102A00002E25642E25642E25640D0A0A0A00000076
:102A10000048704748D901202DE9F04107460C468F
:102A200015461E463246214638460FF01DFC401C16
:102A3000A0B12068007800062168497840EA01408A
:102A40002168897840EA01202168C9780843286014
:102A50002068001D20600020BDE8F0810120FBE718
:102A6000F8B504460D46164633462A4669460548DB
:102A7000FFF7D2FF10B90098206001E00120F8BDF7
:102A80000020FCE794C901200048704794C9012048
:102A900038B50546C5EB4520094901EB800494F89B
:102AA000EC172278074B53F822006A4601F080FCAD
:102AB0009DF8000010B10020C4F8F007204638BD92
:102AC000E8140220B0ED012008E001200FF0BCFA6C
:102AD00003A0FEF753FE054805490860F5E700002E
:102AE0007379736572726F72000000000400FA055A
:102AF0000CED00E010B500200F4908600F48006899
:102B000020F440600D4908600846006840F4806089
:102B1000086000200A49C1F89402022005F0ECF890
:102B2000012005490860022005F0E6F8002004496C
:102B3000C1F8900210BD000090824342001C024088
:102B40000080434210B500200F4908600F4800681C
:102B500020F440600D4908600846006840F4806039
:102B6000086001200A49C1F89402022005F0C4F867
:102B7000012005490860022005F0BEF80020044944
:102B8000C1F8900210BD000090824342001C024038
:102B90000080434270B5054600241648006820F4C2
:102BA000406014490860084600680860002616E086
:102BB000002011490860022005F09EF801200F490D
:102BC000C1F890026006040E0B487C38006808B11A
:102BD000601CC4B2012005F08FF8701CC6B2082E2C
:102BE000E6DB15B9FFF7AEFF01E0FFF783FF2046F4
:102BF00070BD0000001C02409082434200804342AE
:102C000070B504461548006820F440601349086018
:102C10000846006840F480600860002010490860A1
:102C2000002517E0E0090E49091D08606006040E42
:102C3000022005F061F801200A49C1F89002022043
:102C400005F05AF8002006490860022005F054F803
:102C5000681CC5B2082DE5DB70BD0000001C0240F9
:102C6000908243420080434210B50F48006820F430
:102C700040600D4908600846006840F480600860C4
:102C800001200A4908600A49C1F89002042005F0B1
:102C900033F8002005490860042005F02DF80020D5
:102CA0000349C1F8900210BD001C024094824342C7
:102CB0000080434210B50F48006820F440600D4981
:102CC00008600846006840F48060086000200A49F7
:102CD00008600A49C1F89402042005F00DF80120AB
:102CE000054908600549C1F89402042005F004F87C
:102CF00010BD0000001C024090824342008043420D
:102D000010B500241348006820F4406011490860A1
:102D100008460068086001200F49086004F0ECFFD5
:102D200001200E49C1F8900204F0E6FF07E0601CA4
:102D3000C4B2FA2C03DDFFF7BDFF012010BD064829
:102D4000803800680028F2D10349091F086000BFDD
:102D5000F4E70000001C024094824342008043429A
:102D60002DE9F04196B005460E4617469846052DCA
:102D700004DD4FF0FF3016B0BDE8F081C5EB452013
:102D8000FE4901EB8004A76066602570FC48C4F82A
:102D9000F80784F8EC872178C1EBC111F94B19448D
:102DA000486D2178C1EBC11119440A6D012190478A
:102DB0002078C0EBC010F349084490F860008DF80B
:102DC00000002078C0EBC010084490F861008DF836
:102DD00001002078C0EBC010084490F862008DF824
:102DE000020001208DF80300684600F021FD2178E3
:102DF000C1EBC111E34A1144C86DFEF70BFB20780B
:102E0000C0EBC010DF490844806D01902078C0EB12
:102E1000C0100844D0F82E00001D0290207800EB6E
:102E20004001C1EBC010D84901EBC0000390402025
:102E300004904FF47A700590002006904FF4806063
:102E400007900020089009900A904FF400300B90F2
:102E500000200C9001200D9000200E900F90217802
:102E6000C1EBC111C74A1144C86D01A9FEF7D2FBDD
:102E70002178C1EBC111C34A1144C86D0122102150
:102E8000FEF7AAFB2178C1EBC111BE4B1944D1F862
:102E900039002178C1EBC1111944D1F83520012145
:102EA00090472178C1EBC111B64A1144D1F84100D5
:102EB000FEF7B0FA2078C0EBC010B2490844D0F851
:102EC0003D0001902078C0EBC0100844D0F82E00DF
:102ED000001D0290207800EB4001C1EBC010AB490F
:102EE00001EBC0000390002004904FF47A7005902D
:102EF000002006904FF48060079000200890099011
:102F00000A904FF440300B9000200C9001200D905F
:102F100000200F902178C1EBC1119A4A1144D1F8D9
:102F2000410001A9FEF776FB2178C1EBC111954A5A
:102F30001144D1F841000121FEF760FA2178C1EB7C
:102F4000C111904B194448682178C1EBC111194453
:102F50000A68012190472178C1EBC111894B1944BE
:102F6000D1F817002178C1EBC1111944D1F8132011
:102F7000012190472378C3EBC313DFF808C26344F1
:102F80009A7B2378C3EBC313634499892378C3EBFB
:102F9000C31363449868FFF7FEFB2378C3EBC313A6
:102FA000DFF8E0C1634493F821202378C3EBC31317
:102FB0006344B3F81F102378C3EBC3136344D3F8FF
:102FC0001B00FFF7E8FB00208DF8560001208DF86C
:102FD000570002208DF854002078C0EBC0106949DA
:102FE0000844D0F82200149002208DF85500217872
:102FF000C1EBC111634A1144D1F81B0014A9FFF7BA
:1030000082FB02208DF8540000208DF857002078B4
:10301000C0EBC0105B490844D0F80F001490217831
:10302000C1EBC111574A1144886814A9FFF76BFB23
:103030002178C1EBC111534B1944D1F82A002178F2
:10304000C1EBC1111944D1F8262001219047A06895
:1030500010900020ADF84400ADF84600ADF84800EF
:10306000ADF84C000C20ADF84A002178C1EBC1113D
:10307000444A1144D1F82E0010A904F09BFA21789B
:10308000C1EBC1113F4A1144D1F82E00012104F0D7
:103090002DFA2178C1EBC1113A4A1144D1F82E0022
:1030A0000122802104F02EFA2178C1EBC111354AAA
:1030B0001144D1F82E000122402104F023FA207897
:1030C000C0EBC0102F49084490F832008DF8000082
:1030D0002078C0EBC010084490F833008DF8010050
:1030E0002078C0EBC010084490F834008DF802003E
:1030F00001208DF80300684600F09AFB2178C1EBAF
:10310000C111204A1144D1F82E00002240F226615C
:1031100004F02BFA2178C1EBC1111A4A1144D1F8FD
:103120002E00002240F2255104F01FFA2178C1EB55
:10313000C111144A1144D1F82E00002240F2277127
:1031400004F013FA2178C1EBC1110E4A1144D1F8F1
:103150002E00012240F2244104F007FA2078C0EB4F
:10316000C0100849084490F86B00012838D1217834
:10317000C1EBC111034B1944086F09E0E8140220A8
:10318000897600085018030860010220D8ED01205C
:103190002178C1EBC1111944CA6E012190472078F2
:1031A000C0EBC01016490844D0F87B0014900120F1
:1031B0008DF8540000208DF8560001208DF857003E
:1031C00000208DF855002178C1EBC1110C4A114443
:1031D000486F14A9FFF797FA2078002102F00CFC41
:1031E000002001F04BF82178064A42F82100012026
:1031F00001F044F82178044A42F821000020BAE5A1
:1032000050180308B0ED0120C4ED01200146002054
:1032100000BF05E0044A12F810200A54421CD0B244
:103220000428F7DB704700002E01002010B504468B
:10323000C4EBC412114B1A44D2F86310C4EBC4128D
:103240001A44D06DFEF796F9B0B1C4EBC4120B4B23
:103250001A44D2F86710C4EBC4121A44D06DFEF7BA
:10326000B3F8C4EBC411054A1144D1F82E00012271
:1032700040F2266104F079F910BD000050180308EF
:1032800070B504460025C4EBC411354A1144D1F889
:103290002E0040F2244104F03EF900285DD0C4EB3A
:1032A000C4102F490844D0F82E000088C4EBC41085
:1032B0000844D0F82E008088C4EBC411284A114479
:1032C000D1F841000021FEF799F8C4EBC412244B59
:1032D0001A44D16CC4EBC4121A44D2F84100FEF770
:1032E00073F8C4EBC4111E4A1144D1F84100FEF733
:1032F0003DF9C0F57A7085B2BDB104EB4402C2EB72
:10330000C412184B03EBC201C4EB4422164B03EB6F
:10331000820202F11C002A46FCF7D2FFC4EB4420D3
:10332000114901EB8000C0F8F057C4EBC4110C4AFE
:103330001144D1F841004FF47A71FEF797F9C4EBCC
:10334000C411074A1144D1F841000121FEF756F893
:10335000064951F8240001F0A3F8002070BD0000D8
:1033600050180308D8ED0120E8140220B0ED012028
:1033700010B50446204604F0EBF92046FFF780FF25
:1033800010BD00001CB500244848006840F0010052
:10339000464908600846006840F002000860084698
:1033A000006840F0040008600846006840F04000F3
:1033B00008603E481430006840F480403B491431B6
:1033C00008603B48006840F400003949086001206B
:1033D000032100230222CDE9001086213548FFF7A2
:1033E000FFF90120032100230222CDE90010322140
:1033F0003148FFF7F5F90120032100230222CDE92E
:10340000001049032D48FFF7EBF9012003210023A9
:103410000222CDE90010C1022948FFF7E1F90B2291
:1034200001212448FFF74FF90B2202212148FFF721
:103430004AF90B2207211F48FFF745F90B221146D5
:103440001F48FFF740F90B2201211B48FFF73BF90A
:103450000B2204211848FFF736F90B2205211648E4
:10346000FFF731F90B220D211448FFF72CF90B223D
:103470000E211248FFF727F90121072002F05EF91B
:10348000322004F003FC0021072002F057F9022348
:103490003D220021084600F04BF9FEF7FFFD0446EF
:1034A0000CB901201CBD0020FCE7000030380240B0
:1034B00004380140000002400008024000180240A9
:1034C000000402402DE9F04180460D4616461F4695
:1034D00000242A46314628A0FFF7DFF8804608F18D
:1034E000010000282AD001202549087025A004F0F9
:1034F0007FF900BF20E056F824001FA1FCF727FF4A
:10350000C0B957F8240022A1FCF721FF30B90020F0
:103510001B49087020A004F06BF90BE057F8240059
:1035200020A1FCF714FF28B901201549087015A047
:1035300004F05EF9601CC4B2AC42DCDB10480078D9
:1035400028B91A48007810B919A0BDE8F0810C48D4
:10355000007828B915480078012801D11CA0F4E7AB
:1035600007480078012805D110480078012801D1CA
:103570001FA0EAE726A0E8E74C4544310000000020
:10358000C00100204C4544313D313B0A00000000A1
:103590004C4544314F4E00004C4544313D303B0AD0
:1035A000000000004C4544314F464600C101002058
:1035B0002F53544D3332463430374C45445F4F4ED1
:1035C0005F424545505F4F46462E7368746D6C00F0
:1035D0002F53544D3332463430374C45445F4F4EB1
:1035E0005F424545505F4F4E2E7368746D6C00000E
:1035F0002F53544D3332463430374C45445F4F4699
:10360000465F424545505F4F4E2E7368746D6C00A7
:103610002F53544D3332463430374C45445F4F4678
:10362000465F424545505F4F46462E7368746D6C49
:10363000000000001CB501218C2002F0EFF82020D2
:10364000009001208DF8040000208DF80600012074
:103650008DF8070000208DF8050069461348FFF734
:1036600052F81020009069461048FFF74CF84FF4CC
:103670008050009069460D48FFF745F84FF4006010
:10368000009069460A48FFF73EF84FF4005000905A
:1036900069460848FFF737F84FF400610448FFF720
:1036A0009DF8202001491A3108801CBD001C0240F1
:1036B000000C024000080240002014E03021C0EB62
:1036C000C0020A4B03F8221000F13101C0EBC00226
:1036D00003EB820251700121C0EBC00203EB8202B6
:1036E0001172411CC8B20A28E8DB704740AD0120C6
:1036F000FFF7E2FF13E00020FFF7CAF90446D4F811
:10370000F00718B104F11C00FDF73CF904480078FB
:10371000012804D10222092102A003F0B5FFEAE743
:103720003701002064656275674944434900000021
:103730002DE9F0410746884614461D46284600F00C
:1037400033F8C5F1040007FA00F60F20284100EA1B
:103750000800064306F00F06E21704EBD26252118E
:10376000920002F1E022D2F800212146E31704EB97
:10377000D3635B11A4EB431C012303FA0CF31A433C
:103780002046E31704EBD3635B119B0003F1E023B6
:10379000C3F800210348005D40EA061001490855BE
:1037A000BDE8F08100E400E00146072323EA0102BE
:1037B0001202054B18684FF6FF031840034B1843DD
:1037C0001043014B186070470CED00E00000FA0553
:1037D0004A0A52020243014B1A60704708ED00E0AA
:1037E00000BFFEE770B502460C46FF25FF2309E047
:1037F00012F8010B80EA05010648405C80EA0305E7
:103800000548435C2000A4F10104F1D143EA0520FE
:1038100070BD0000CC820108CC83010810B50121E5
:103820000020FEF7FFFC00F0040010BD7047000010
:1038300070B5002100230F22C4781CB3174C2468F4
:1038400004F4E064C4F5E064C4F30721C1F10404A6
:10385000E3B20A4144789C40E1B2847814402143A9
:103860000C07210E0E4C05786155047804F01F05F5
:103870000124AC4005786D11AD0005F1E025C5F8D7
:10388000004109E0047804F01F050124AC40054D17
:103890000678761145F8264070BD00000CED00E07A
:1038A00000E400E080E100E000200149087070477A
:1038B00020010020012001490870704720010020EC
:1038C00010B5044B012202210348006800F08EF974
:1038D00010BD000014000020100000202DE9F04170
:1038E00005460E46144600271148007818B11220EC
:1038F0002070BDE8F0812878012808D0022807D080
:10390000032802D0042804D100E000BF00BF00BF9C
:1039100002E001202070ECE700BFFCF779FC0746CD
:10392000EE623846FCF778FC0020207000BFE0E72C
:10393000250200202DE9F04106460D4600271348D8
:10394000007820B1102028700020BDE8F081FCF73D
:103950005FFC07460E48046884B1006840680C4963
:1039600008600520207026810020606009A0E060CA
:103970003846FCF751FC0020287004E03846FCF77C
:103980004BFC722028702046DFE700002502002053
:10399000140200203F0000002DE9F04F89B00546D9
:1039A0000F4691469A46129E002002908C4800785D
:1039B00028B102203070002009B0BDE8F08F89489E
:1039C000007818B10D2030700020F5E72878052820
:1039D00003D0012030700020EEE709F0800BBBF12E
:1039E000000F04D009F07F094FF0010801E04FF00B
:1039F0000008FCF70DFC0290B9F1000F4AD0B9F1B4
:103A0000010F68D0B9F1020F03D0B9F1030F76D1DD
:103A100020E0288900EA0704BC420FD1B8F1010F69
:103A200002D12889A04328816F48006884850298C4
:103A3000FCF7F2FB002030702046BDE74B463A46CB
:103A400004A92846CDF800A001F0B6FA0298FCF7C8
:103A5000E3FB69E0288900EA07047CB1B8F1010FB3
:103A600002D12889A04328815F4800688485029894
:103A7000FCF7D2FB0020307020469DE74B463A46CB
:103A800004A92846CDF800A001F096FA0298FCF7A8
:103A9000C3FB49E0288927EA0004BC420FD1B8F1F2
:103AA000010F02D12889204328814F48006884856E
:103AB0000298FCF7B1FB0020307020467CE74B46B3
:103AC0003A4604A92846CDF800A001F075FA0298FC
:103AD000FCF7A2FB28E0288927EA000484B1B8F1AA
:103AE000010F02D12889204328813F48006884853E
:103AF0000298FCF791FB0020307020465CE70BE059
:103B00004B463A4604A92846CDF800A001F054FAE5
:103B10000298FCF781FB07E00298FCF77DFB00248C
:103B20006F203070204647E700BF01F04DFCFCF7E6
:103B30006FFB02902C48006890F8350020B32A48AB
:103B4000006890F83500039000202749096881F843
:103B5000350004A801F0E2FA00202349096881F841
:103B600034000298FCF758FB00240398012805D084
:103B7000022802D10E20307003E000BF0A2030700E
:103B800000BF00BF204617E717480068848DB8F1D2
:103B9000010F1ED1B9F1000F0ED0B9F1010F0CD0F9
:103BA000B9F1020F03D0B9F1030F0AD100E000BF51
:103BB0002889A04328810BE000BF28892043288161
:103BC00006E00298FCF728FB6F2030700020F3E637
:103BD00000BF0298FCF720FB002030702046EBE687
:103BE0002502002026020020340200202DE9FC5F7F
:103BF0000446894692461E460020009020780528FB
:103C000004D0012030700020BDE8FC9FFCF700FBD1
:103C10000090BAF1000F03D0BAF1010F0AD104E00D
:103C2000208920EA090020810BE0208940EA090070
:103C3000208106E00098FCF7EFFA71203070002038
:103C4000E2E700BF4FF0000B656859E0A87C50B375
:103C500001283BD0022802D0032848D112E0208955
:103C6000298A00EA0107288AB8420AD10022394687
:103C7000284601F021FA8046B8F1010F01D14FF03A
:103C8000010B3BE02089298A00EA010757B1002295
:103C90003946284601F010FA8046B8F1010F01D1EB
:103CA0004FF0010B2AE0288A218920EA0107288A9F
:103CB000B8420AD100223946284601F0FDF9804673
:103CC000B8F1010F01D14FF0010B17E0288A2189CB
:103CD00020EA010757B100223946284601F0ECF9E5
:103CE0008046B8F1010F01D14FF0010B06E00098BA
:103CF000FCF792FA6F203070002085E700BF2D6836
:103D0000002DA3D10098FCF787FABBF1010F01D178
:103D100001F05AFBFCF77CFA009020890190009892
:103D2000FCF77AFA0020307001986DE710B500F0CA
:103D300013F801F035FA01F061FA01F083FA01F0AD
:103D4000FFF901F08DF901F017FB01F0BBFA01F06A
:103D5000E1FA00F019F810BD0848802102E0491E80
:103D6000002204C00029FAD1054A064B1A601A46FF
:103D7000126822F007021A6070470000CC5F022030
:103D8000CC610220540200207047000006480078F1
:103D9000012808D105480078FF2804D2034800789C
:103DA000401C0249087070472C02002025020020A8
:103DB00010B500241A480078012830D1FCF728FA01
:103DC00004461848007820B116480078401E15496E
:103DD000087014480078F8B913480078E0B901F089
:103DE0002DFB12481249097850F82100114908604A
:103DF0000F4800781049097888420DD00D480068B6
:103E0000006C401C0B49096808640C480068401CA1
:103E10000A490860FCF71CFA2046FCF7FDF910BDC2
:103E20002C0200202502002026020020604F0220E4
:103E3000280200203C020020270200200C02002063
:103E40002DE9F04106460F464FF000082048007863
:103E500010B10020BDE8F081FCF7DAF980461D487A
:103E60000468006820B11B48006840681949086070
:103E70004046FCF7D1F9FCB1FCF7CAF98046164878
:103E80000568D5B100680068134908604046FCF732
:103E9000C3F96E6006EB8700A860EE602E61AF820A
:103EA0000020E882022020700020208165600BA0A5
:103EB000E062204601F070F808E0064800686060A3
:103EC000044804604046FCF7A7F900242046C1E7F7
:103ED0002502002010020020480200203F000000C0
:103EE0002DE9F0470446894615464FF0000A207830
:103EF000022804D0012028702046BDE8F08735480C
:103F0000007818B10F2028702046F6E7FCF780F9FA
:103F10008246608910B14FF0010801E04FF00008BF
:103F2000B9F1000F03D0B9F1010F49D121E0B8F187
:103F3000000F17D128A0E06266682848006830604A
:103F40002648066000202070254800686060002038
:103F50002081234804605046FCF75EF90020287059
:103F6000002705E05046FCF757F9492028702746FE
:103F70002DE005E0022304220021204600F034FF5A
:103F800060890028F6D114A0E062666813480068D2
:103F900030601248066000202070114800686060A0
:103FA000002020810E4804605046FCF735F9B8F136
:103FB000010F01D101F008FA00202870002706E067
:103FC0005046FCF729F907202870274600BF00BF9C
:103FD000384692E7250200203F00000048020020FA
:103FE000100200202DE9F0470746884615464FF09D
:103FF00000093878022804D0012028700020BDE88C
:10400000F0873E48007818B1022028700020F6E7BB
:104010003B48007818B10D2028700020EFE7FCF72E
:10402000F7F881467C68E08A98B12169081D206113
:104030000E68E08A401EE082A1682069884201D1B2
:10404000606820614846FCF7E7F800202870304699
:10405000D5E72C48006890F8340040F00400294966
:10406000096881F8340000202649096881F8350084
:1040700024480068C0F83080384600F04DFF4846BC
:10408000FCF7CAF801F0A0F9FCF7C2F881461D4818
:10409000006890F8350020B101280DD002280AD11F
:1040A00005E018480068466A002028700DE00026E8
:1040B0000E20287009E000BF39461248006800F061
:1040C000F5FE00260A20287000BF00BF00200D4921
:1040D000096881F834000B49096881F835000949FD
:1040E0000968C861074909680862064909684862A1
:1040F0004846FCF791F8304681E700002502002091
:1041000026020020340200202DE9F04105460E462B
:1041100000272878022802D00120BDE8F081FCF7B2
:1041200077F80746688960B10023042231462846A3
:1041300000F05AFE3846FCF76FF801F045F9002010
:10414000EBE76C68E08AA18A884204DB3846FCF71A
:1041500063F81E20E1E7E168081DE0600E60E08A78
:10416000401CE082D4E90210884201D16068E0601E
:104170003846FCF751F80020CFE72DE9F047054617
:104180000C464FF0000A2878022802D00120BDE832
:10419000F087FCF73DF882466889208505F10C0818
:1041A00004F10809002705E038F8020B29F8020B92
:1041B000781CC7B2102FF7D36E68F08A18B1306937
:1041C0000068206001E000202060F08AA080B08AB2
:1041D000E0805046FCF720F80020D8E710B5002416
:1041E0000B480078012811D1FCF712F80446094861
:1041F000007840B908480078FF2804D206480078C3
:10420000401C054908702046FCF706F810BD000068
:104210002C020020250200202602002010B50024D8
:1042200013480078012821D1FBF7F2FF044611481A
:104230000078C0B91048007888B10F480078401E57
:104240000D4908700846007828B92046FBF7E4FFBE
:1042500001F0BAF80AE02046FBF7DEFF06E0204650
:10426000FBF7DAFF02E02046FBF7D6FF10BD0000A7
:104270002C020020250200202602002070B50546F1
:1042800000261048007808B1002070BDFBF7C0FF81
:1042900006460D480468006820B10B480068406875
:1042A000094908603046FBF7B7FF4CB10320207086
:1042B00025810020606005A0E062204600F06CFED1
:1042C0002046E2E725020020100200203F00000007
:1042D0002DE9F0470446884615464FF0000920783E
:1042E000032804D0012028702046BDE8F0872D481F
:1042F000007818B10F2028702046F6E7FBF788FFFA
:104300008146608908B1012700E00027B8F1000F5D
:1043100003D0B8F1010F3AD119E08FB922A0E062C1
:1043200000202070214800686060002020811F4824
:1043300004604846FBF770FF00202870002605E067
:104340004846FBF769FF49202870264626E005E02D
:10435000022301220021204600F046FD608900284A
:10436000F6D111A0E0620020207010480068606063
:10437000002020810D4804604846FBF74DFF012FC7
:1043800001D101F021F800202870002606E04846FF
:10439000FBF742FF07202870264600BF00BF3046CB
:1043A000A3E70000250200203F00000010020020CB
:1043B0002DE9F04105460E461446002728780328CB
:1043C00003D001202070BDE8F0813248007810B1A0
:1043D00002202070F7E73048007810B10D202070DF
:1043E000F1E7FBF715FF0746288940B12889401EF1
:1043F00028813846FBF710FF00202070E3E72748AC
:10440000006890F8340040F001002449096881F800
:10441000340000202149096881F835001F480068F0
:104420000663284600F078FD3846FBF7F5FE00F0FD
:10443000CBFFFBF7EDFE07461848006890F8350003
:1044400020B1012809D0022806D102E00020207006
:104450000BE00E20207008E000BF29460F480068DE
:1044600000F024FD0A20207000BF00BF00200B498F
:10447000096881F834000949096881F8350007495D
:104480000968C8610549096808623846FBF7C4FE37
:1044900000BF98E7250200202602002034020020F9
:1044A00070B5044600252078032801D0012070BD96
:1044B000FBF7AEFE0546608960B100230122194674
:1044C000204600F091FC2846FBF7A6FE00F07CFF9A
:1044D0000020ECE720894FF6FF71884207D220893F
:1044E000401C20812846FBF797FE0020DFE7284686
:1044F000FBF792FE3320DAE72DE9F04704460D463C
:104500004FF000092078032802D00120BDE8F08791
:10451000FBF77EFE81466089688404F10C0705F193
:104520000208002605E037F8020B28F8020B701C81
:10453000C6B2102EF7D3208928804846FBF76CFEC0
:104540000020E3E710B50B48007890B900F076FF43
:10455000094800780949087009480749097850F85E
:104560002100084908600846006807490860FBF711
:1045700056FE10BD2C020020280200202702002039
:10458000604F02203C0200203402002070470000EF
:104590002DE9FE4F06460F4690461C464FF0000997
:1045A000FBF736FE81461F48007828B14846FBF7E6
:1045B00033FE3C20BDE8FE8F1B4850F8240060BB52
:1045C0000120194941F824004846FBF725FE002345
:1045D00042463946304600F0BBF982460020009042
:1045E00001900346024651460290204600F056FFD5
:1045F000054635B90D48007801280CD100F0E4FEDD
:1046000009E0FBF705FE81460020074941F8240038
:104610004846FBF701FE2846CCE74846FBF7FCFD81
:104620002820C7E725020020604F02202C0200202E
:104630002DE9F04F85B081468A4693461C46DDE958
:104640000F78129D00200390FBF7E2FD03902348B2
:10465000007830B10398FBF7DFFD3C2005B0BDE8E2
:10466000F08F1F4850F8240088BB01201C4941F8F6
:1046700024000398FBF7D0FD2A464146384601F056
:104680003FF82B465A465146484600F061F90490DF
:104690001198CDE9008002953A4620460E9B049978
:1046A00000F0FCFE064636B90E48007801280CD111
:1046B00000F08AFE09E0FBF7ABFD039000200849FB
:1046C00041F824000398FBF7A7FD3046C6E7FFE753
:1046D0000398FBF7A1FD2820C0E700002502002079
:1046E000604F02202C020020704700002DE9F041AD
:1046F000054600274B48007810B14020BDE8F08106
:10470000FE2D01D13E20F9E7FBF782FD0746FF2D84
:1047100003D14548006890F83650444850F8254089
:1047200024B93846FBF778FD4320E7E7012C04D194
:104730003846FBF771FD3D20E0E714F8380F3C499F
:1047400031F81000618888432178394A22F8110035
:1047500014F83809114631F8100028B9A18F3548EE
:104760000088884333490880E06918B12046E16930
:1047700000F09CFB206A18B12046216A00F0AEFBD5
:10478000A66A16B1304600F0C9FC0020206384F808
:10479000340084F8350028480078FF2804D22648E1
:1047A0000078401C244908703846FBF735FD00F0BE
:1047B0001AFBFBF72DFD07461F48007820B11E4865
:1047C0000078401E1C490870204600F041F81B4844
:1047D0000078401E194908700020144941F825004E
:1047E000A06930B900206169886115496069086075
:1047F00005E0D4E905014861D4E905108861114854
:10480000006860610F4804600FA060653846FBF7E0
:1048100003FD0E480078012801D100F0D5FD0020ED
:104820006CE700002502002034020020604F0220C7
:10483000404D02202A020020260200202D020020E6
:1048400040020020380200203F0000002C0200201F
:10485000704770472DE9F04106460F4614464FF069
:1048600000081548007818B112202070BDE8F081CA
:10487000FBF7CEFC8046FF2E03D11048006890F86D
:1048800036600F4850F826502DB94046FBF7C4FC5F
:1048900043202070EAE7012D05D14046FBF7BCFC20
:1048A00043202070E2E76F654046FBF7B5FC00202F
:1048B000207000BFDAE7000025020020340200204B
:1048C000604F0220704770472DE9F04707460D46BC
:1048D0004FF0000A002028606860FBF799FC8246D0
:1048E000FF2F03D11848006890F83670174850F829
:1048F00027402CB95046FBF78FFC4320BDE8F087DA
:10490000012C04D15046FBF787FC4320F6E7207CBE
:1049100000F0010020B95046FBF77EFC4520EDE792
:104920000026D4F80C90D4F808805046FBF774FCAD
:1049300000E0761C58F8041B0029FAD02E60A9EB81
:10494000060068600020D9E734020020604F022092
:1049500070B50446101D20F007004FF08076051F4B
:1049600028462E60051F28462C60684E051F2846E5
:104970002E604FF01236051F28462E604FF003368A
:10498000051F28462E604FF00236051F28462E6070
:104990007610051F28462E60051F284629604FF017
:1049A0001136051F28462E604FF01036051F284689
:1049B0002E604FF00936051F28462E604FF008364E
:1049C000051F28462E604FF00736051F28462E602B
:1049D0004FF00636051F28462E604FF00536051F9E
:1049E00028462E604FF00436051F28462E6003F03F
:1049F0000405002D7ED0F605051F28462E60444E86
:104A0000051F28462E60434E051F28462E60424E45
:104A1000051F28462E60414E051F28462E60404E39
:104A2000051F28462E603F4E051F28462E603E4E2D
:104A3000051F28462E603D4E051F28462E603C4E21
:104A4000051F28462E603B4E051F28462E603A4E15
:104A5000051F28462E60394E051F28462E60384E09
:104A6000051F28462E60374E051F28462E60364EFD
:104A7000051F28462E604FF08346051F28462E60EE
:104A8000324E051F28462E60314E051F28462E60E7
:104A9000304E051F28462E602F4E051F28462E60DB
:104AA0002E4E051F28462E602D4E051F28462E60CF
:104AB0002C4E051F28462E604FF08246051F2846C3
:104AC0002E60294E051F28462E60284E051F2846B9
:104AD0002E60274E051F28462E604FF08146051F89
:104AE00028462E60234E051F28462E603602051FDD
:104AF000284600E009E02E604FF07E56051F28464C
:104B00002E600026051F28462E6070BD0D56000839
:104B10000000F8410000F0410000E8410000E041E1
:104B20000000D8410000D0410000C8410000C04151
:104B30000000B8410000B0410000A8410000A041C1
:104B40000000984100009041000088410000704141
:104B50000000604100005041000040410000304131
:104B600000002041000010410000E0400000C04073
:104B70000000A040000040402DE9F04105464FF004
:104B80000008FBF745FB8046FF2D05D12148006852
:104B900090F83650012608E01E48006890F836006C
:104BA000A84201D1012600E000261B4850F825400C
:104BB0002CB94046FBF730FB4820BDE8F081012CC2
:104BC00004D14046FBF728FB4320F6E794F8387001
:104BD000124830F81700618F8843104921F81700F8
:104BE000084630F8170028B9A18F0D48008888437F
:104BF0000B49088094F8340040F0080084F8340031
:104C00004046FBF709FB012E01D100F0DDFB00203F
:104C1000D3E7000034020020604F0220404D022004
:104C20002A02002010B50B480068007C00F0040048
:104C300020B1084909680868FBF7D4FA06480068FB
:104C4000007C00F0040020B1034909680868FBF704
:104C5000D6FA10BD340200203C02002070B5054693
:104C600000261848007800B170BD1748007800B1E0
:104C7000FAE725B3FBF7CCFA06461448006890F82B
:104C80003840134830F8140010490968498F8843A8
:104C90000F4921F81400084630F8140038B90B48C1
:104CA0000068818F0B48008888430A4908800748BC
:104CB000006805633046FBF7AFFA00F085FB00BFE4
:104CC000D2E7000025020020260200203402002046
:104CD000404D02202A02002070B50025FBF798FA0B
:104CE0000546034804682846FBF796FA204670BD3F
:104CF0005002002070B5002600F074F8FBF788FA27
:104D0000064632480068401C304908603046FBF7D0
:104D100083FA2F480078012855D12E48007820B119
:104D2000012804D0022809D103E001250BE0002569
:104D300009E0012501202749087004E00125002031
:104D40002449087000BF00BF05B970BD224804683F
:104D500035E0FBF75DFA0646206B60B3206B401E22
:104D60002063206B38BB94F8340000F0370040B16A
:104D700014F8340F00F0C800207001206070343C3B
:104D800002E0002084F8350094F8340000F00800B8
:104D900088B9A08F1149098808431049088094F800
:104DA00038000F4931F81000618F084394F838102B
:104DB0000B4A22F8110064693046FBF72DFA94F88B
:104DC0003600FE28C5D100BFBFE70000500200201A
:104DD0002C02002044020020400200202A02002071
:104DE000404D0220704770472DE9FF4F05468A4627
:104DF0009346A87A18B1A87A28490E5C06E068891B
:104E0000264901EB102000780830C6B205F10C00ED
:104E100000EB4607387820B13878204911F8008037
:104E200007E038881D4901EB10200078083000F0B9
:104E3000FF0808EB061000F0FF09194850F8294058
:104E4000002044F8300F44F80CAC207920EA0B0025
:104E50002071039860712079303C00F0080068B937
:104E6000A08F1049098808430E4908800E4830F881
:104E70001600618F08430C4921F816002946204688
:104E800000F014F8206A20B12046216A00F026F8CC
:104E9000E561484604B0BDE8F08F0000CD19030875
:104EA000604F02202A020020404D022010B590F8E9
:104EB000382001F10C0333F81230448FA34301F181
:104EC0000C0424F81230234633F812301BB94B89F6
:104ED000848FA3434B810023C36110BDF0B502460C
:104EE00092F83840958F568F0B46186811E000F104
:104EF0000C0737F81470B74300F10C0C2CF8147041
:104F0000674637F8147017B94789AF4347811B1DAF
:104F100018680028EBD1F0BD10B51C4A1268D061AA
:104F20001A4A126892F8383000F10C0232F8132055
:104F3000164B1B685B8F1A43144B1B6893F8384061
:104F400000F10C0323F814204289104B1B689B8F3F
:104F50001A4342810D4A126892F838100C4A32F80E
:104F600011200A4B1B685B8F9A43094B23F81120D1
:104F70001A4632F811203AB9044A1268938F054A4A
:104F800012889A43034B1A8010BD0000340200209F
:104F9000404D02202A020020014600224A810020C2
:104FA00006E0002301F10C0222F81030421CD0B2BE
:104FB0001028F6D370470000F0B51446059E254F23
:104FC0003F6897F8347047F02007DFF888C0DCF8B6
:104FD00000C08CF834700027DFF878C0DCF800C01F
:104FE0008CF835701B4F3F683E631A4F3F68B962BB
:104FF0000C828B74174F3F688F6047680F600027E3
:105000004F60C860456805B169604160114F3F68F5
:1050100097F83820104F37F81270DFF838C0DCF8F6
:1050200000C0BCF83AC027EA0C07DFF82CC02CF807
:105030001270674637F812705FB9064F3F68B7F8CD
:105040003CC0064F3F8827EA0C07DFF810C0ACF8D9
:105050000070F0BD34020020404D02202A020020E2
:105060002DE9F041A021114800F07CF900250DE068
:10507000681C86B20D4800EB051400EB06170020F3
:10508000207067600AA0E060681C85B2092DEFD32C
:10509000064800EB051400202070606004A0E0606A
:1050A000024804490860BDE8F0810000A04A0220DF
:1050B0003F000000140200202DE9F041064688461A
:1050C0001746B468002044F8300F24F8048C207987
:1050D00000F0DF00207167712079303C98B9A08F13
:1050E0000C49098808430B49088094F838000A499C
:1050F00031F81000618F084394F83810064A22F8FE
:105100001100012500E00025304600F007F8284690
:10511000BDE8F0812A020020404D022030B5014652
:105120004A6808682AB9CC68606028B100254560E3
:1051300002E0106000B142608B6800259D6230BDC6
:1051400070B54FF43461134800F00CF9002411E0FD
:10515000601C85B204EB44000E4901EB001305EB23
:10516000450001EB0016002018705E600AA0D862AE
:10517000601C84B23B2CEBD304EB4400054901EBEB
:10518000001300201870586003A0D8620846034935
:10519000086070BD603F02203F0000001002002048
:1051A00000200B4908600B4908700B4908700B4937
:1051B00008700B4908700B4908600B4908600B49DF
:1051C00008600B4908600B4908700B49087070476C
:1051D0005002002025020020260200202D0200207F
:1051E0002C0200200C0200203002002020020020AF
:1051F0001C020020240200204C02002000210B4A47
:105200001180002005E00021094A22F81010411CFD
:10521000C8B21028F7D30021064A1170064A11704F
:10522000064A1160064A1160704700002A020020F9
:10523000404D022027020020280200203C020020CE
:105240003402002070B54FF43861194800F08AF834
:105250004FF47F71174800F085F8002413E0601CBC
:10526000C5B2C4EBC40000EB0410114901EB80038C
:10527000C5EBC50000EB051001EB80065E610EA0DA
:105280005865601CC4B21F2CE9D3C4EBC40000EB0A
:105290000410074901EB80030020586106A05865FF
:1052A00000200649086002480549086070BD0000FA
:1052B0005C530220604F02203F00000040020020AB
:1052C0003802002000B587B00320002180220A4B5D
:1052D000CDE90132CDE903104FF6FF70FE23074AF6
:1052E00000900748FFF7A4F906AA06A1FE20FFF7E1
:1052F000B1FA07B000BD0000604D02205C4F0220F3
:10530000E555000875432F4F532D49492049646CDA
:105310006500000000B587B00320002180220A4B01
:10532000CDE90132CDE903104FF6FE70FD23074AA7
:1053300000900748FFF77CF906AA06A1FD20FFF7B9
:1053400089FA07B000BD0000404B02203C4D02200E
:105350002556000875432F4F532D4949205374613A
:105360007400000004E0002200F8012B4A1E91B2F4
:105370000029F8D1704700002DE9F041F0211048D4
:10538000FFF7F0FF00240DE0601C86B204EB440040
:105390000B4901EBC00506EB460001EBC0072F608F
:1053A000601C84B2092CEFD304EB4400044901EBE8
:1053B000C00500202860084602490860BDE8F08169
:1053C000DC5E02204802002010B50024FAF720FF1E
:1053D000044613480078F8B912480078E0B900F0A4
:1053E0002DF811481149097850F82100104908603A
:1053F0000E4800780F49097888420DD00C480068A3
:10540000006C401C0A49096808640B480068401C8D
:1054100009490860FAF717FF2046FAF7FDFE10BDAC
:105420002502002026020020604F022028020020D2
:105430003C020020270200200C020020134A1278B0
:1054400022B1124A1278124B985C07E0104A0F4BB7
:105450001B8802EB132212780832D0B20D4A02EBFD
:1054600040010A783AB10A78094B9A5C02EB0012C3
:10547000094B1A7009E00A88054B03EB12221278D7
:1054800002EB00120832044B1A7070472A02002007
:10549000CD190308404D0220280200202DE9F84FC5
:1054A00005460F4690469946DDE90AAB002000907C
:1054B000FAF7AEFE009044480468002C7ED01C34FD
:1054C00054F8080C404908600098FAF7A5FE44F823
:1054D0001C7CA576002020766076606144F818BCBC
:1054E00044F810AC44F8148C0C9824F80C0C24F8F4
:1054F0000A9C002084F822002809207705F00F007C
:10550000E076217F012088402084E17E01208840D0
:10551000E083002020606060E060A0606062E06284
:10552000A0622063606329A0A0631C3C002606E003
:10553000002104F1580040F82610701CC6B2002E5D
:10554000F6D02046FFF722F8FAF762FE00902048D6
:1055500040F825400098FAF75FFE2046FFF7C4F8B0
:10556000FAF756FE00901B48006860610020A061B9
:105570001848006810B11748006884611548046035
:10558000A08F1549098808431349088094F838000A
:10559000124931F81000618F084394F838100F4A0F
:1055A00022F811000E480078401C0D490870009840
:1055B000FAF732FE0020BDE8F88FFFE70098FAF70F
:1055C0002BFE4220F7E70000380200203F000000D9
:1055D000604F0220400200202A020020404D02209D
:1055E0002D020020002400BF00BFFAF711FE044680
:1055F00005480068401C044908602046FAF70CFE84
:10560000FFF727F9F1E700003002002010B5044849
:105610000068FFF757F9FF20FFF768F810BD00009A
:105620003402002000BF00BF02E0C820FFF716FBD5
:105630001F4800780028F8D01E4800686421B0FB9D
:10564000F1F01C4908600846006828B900201A4992
:105650000870FF20FFF790FAFAF7DAFD04461548C4
:10566000006864214843154908602046FAF7D4FDD4
:1056700000BFFAF7CDFD04461048006810490860E5
:1056800000200E4908602046FAF7C6FD0C48006865
:1056900008490968B0FBF1F0C0F1640006490870E0
:1056A000FFF711F900F00EF86420FFF7D7FAE0E7F2
:1056B000240200201C0200201802002030020020DA
:1056C000200200207CB5002514E069462846FFF73B
:1056D000FBF8064666B9094850F8254044B1012C4C
:1056E00006D0D4E9020100EB8100E0640198206556
:1056F000681CC5B2FE2DE8D97CBD0000604F0220B9
:1057000002F0010343B102F002032BB102E0491E93
:10571000002308C00029FAD1704710B50024FDF716
:10572000A3FA4120FDF76CFAFDF7EAFA0020FDF735
:1057300031FA0446FDF7BEFA204610BD70B50446A6
:105740000E46FFF7EAFF05461EB90120A04085433B
:1057500003E00120A0402843C5B2284600F001F82C
:1057600070BD10B50446FDF77FFA4020FDF748FAFA
:10577000FDF7C6FA2046FDF743FAFDF7C1FAFDF73B
:1057800099FA0A2002F082FA10BD0000014908626D
:105790007047000000000E421CB50748808906498A
:1057A000C97ACDE900100448837A427A017A03A0CD
:1057B00002F01EF81CBD000048D90120726D69700E
:1057C0003A25642E25642E25642E256420726D7082
:1057D0006F72743A25640D0A000000001CB507487A
:1057E00080890649C97ACDE900100448837A427A53
:1057F000017A03A001F0FCFF1CBD000094C9012048
:105800007269703A25642E25642E25642E25642045
:1058100072706F72743A25640D0A000029B1064A4D
:1058200012680243044B1A6004E0034A1268824380
:10583000014B1A60704700003038024029B1064A17
:1058400012680243044B1A6004E0034A1268824360
:10585000014B1A60704700004038024029B1064AE7
:1058600012680243044B1A6004E0034A1268824340
:10587000014B1A607047000044380240F0B5002127
:1058800000220024022500260223324F3F6807F041
:105890000C0121B1042905D0082937D105E02E4F8C
:1058A000076036E02D4F076033E02A4F3F1F3F6807
:1058B000C7F38056274F3F1F3F6807F03F036EB185
:1058C000264FB7FBF3F7DFF88CC0ACF1040CDCF823
:1058D00000C0CCF3881C07FB0CF40CE01E4FB7FB98
:1058E000F3F7DFF870C0ACF1040CDCF800C0CCF3C7
:1058F000881C07FB0CF4174F3F1F3F68C7F3014795
:105900007F1C7D00B4FBF5F7076002E0124F0760D3
:1059100000BF00BF0F4F3F6807F0F0010909104FAB
:105920007A5C0768D74047600A4F3F6807F4E05148
:10593000890A0B4F7A5C4768D7408760054F3F68FC
:1059400007F46041490B064F7A5C4768D740C7604F
:10595000F0BD0000083802400024F40040787D01CA
:105960000000002010B501460022002300204A114B
:10597000012A02D10A4C236808E0022A03D1084C0C
:105980007034236802E0064C7434236801F01F026F
:10599000012494401C400CB1012000E0002010BD07
:1059A000003802400149086070470000800E4742FD
:1059B00001490860704700003C0E4742002100F496
:1059C0004072B2F5407F08D1094A116821F4F811FC
:1059D000084A02401143064A1160054A68321268BB
:1059E000C0F30B031A43024B68331A607047000080
:1059F00008380240FFFCFF0F70B504460D46C4EBAB
:105A0000C4101349084490F86B00012800D070BD01
:105A1000012D0DD0C4EBC4120D4B1A44B2F87B20FB
:105A200091B2C4EBC4121A44506FFCF7D7FE0CE0DD
:105A3000C4EBC412064B1A44B2F87B2091B2C4EBFB
:105A4000C4121A44506FFCF73AFF00BFDFE70000B2
:105A50005018030830B50C21222217230A2491FB89
:105A6000F4F4303404700A2491FBF4F504FB1514AB
:105A7000303444703A2484700A2492FBF4F43034B5
:105A8000C4700A2492FBF4F504FB1524303404712D
:105A90003A2444710A2493FBF4F4303484710A24C8
:105AA00093FBF4F504FB15343034C47130BD01466A
:105AB00000BF080900EB8000420001F00F00104415
:105AC000C0B270470146002204E0501CC2B2A1F1EE
:105AD0000A00C1B20A29F8DA100741EA10607047DB
